{
  "_format": "hh-sol-artifact-1",
  "contractName": "ClaimFaucetFactory",
  "sourceName": "contracts/ClaimFaucetFactory.sol",
  "abi": [
    {
      "inputs": [
        {
          "internalType": "address",
          "name": "_claimFaucet",
          "type": "address"
        }
      ],
      "name": "claimFaucetFromContract",
      "outputs": [],
      "stateMutability": "nonpayable",
      "type": "function"
    },
    {
      "inputs": [
        {
          "internalType": "string",
          "name": "_name",
          "type": "string"
        },
        {
          "internalType": "string",
          "name": "_symbol",
          "type": "string"
        }
      ],
      "name": "deployClaimFaucet",
      "outputs": [
        {
          "internalType": "address",
          "name": "contractAdress_",
          "type": "address"
        }
      ],
      "stateMutability": "nonpayable",
      "type": "function"
    },
    {
      "inputs": [],
      "name": "getAllContractDeployed",
      "outputs": [
        {
          "components": [
            {
              "internalType": "address",
              "name": "deployer",
              "type": "address"
            },
            {
              "internalType": "address",
              "name": "deployedContract",
              "type": "address"
            }
          ],
          "internalType": "struct ClaimFaucetFactory.DeployedContractInfo[]",
          "name": "",
          "type": "tuple[]"
        }
      ],
      "stateMutability": "view",
      "type": "function"
    },
    {
      "inputs": [
        {
          "internalType": "address",
          "name": "_contractAddr",
          "type": "address"
        }
      ],
      "name": "getBalanceFromDeployedContract",
      "outputs": [
        {
          "internalType": "uint256",
          "name": "balance_",
          "type": "uint256"
        }
      ],
      "stateMutability": "view",
      "type": "function"
    },
    {
      "inputs": [
        {
          "internalType": "address",
          "name": "_contractAddr",
          "type": "address"
        }
      ],
      "name": "getInfoFromContract",
      "outputs": [
        {
          "internalType": "string",
          "name": "",
          "type": "string"
        },
        {
          "internalType": "string",
          "name": "",
          "type": "string"
        }
      ],
      "stateMutability": "view",
      "type": "function"
    },
    {
      "inputs": [],
      "name": "getLengthOfDeployedContracts",
      "outputs": [
        {
          "internalType": "uint256",
          "name": "",
          "type": "uint256"
        }
      ],
      "stateMutability": "view",
      "type": "function"
    },
    {
      "inputs": [],
      "name": "getUserDeployedContracts",
      "outputs": [
        {
          "components": [
            {
              "internalType": "address",
              "name": "deployer",
              "type": "address"
            },
            {
              "internalType": "address",
              "name": "deployedContract",
              "type": "address"
            }
          ],
          "internalType": "struct ClaimFaucetFactory.DeployedContractInfo[]",
          "name": "",
          "type": "tuple[]"
        }
      ],
      "stateMutability": "view",
      "type": "function"
    },
    {
      "inputs": [
        {
          "internalType": "uint8",
          "name": "_index",
          "type": "uint8"
        }
      ],
      "name": "getUserDeployedContractsByIndex",
      "outputs": [
        {
          "internalType": "address",
          "name": "deployer_",
          "type": "address"
        },
        {
          "internalType": "address",
          "name": "deployedContract_",
          "type": "address"
        }
      ],
      "stateMutability": "view",
      "type": "function"
    }
  ],
  "bytecode": "0x6080604052348015600f57600080fd5b506136178061001f6000396000f3fe608060405234801561001057600080fd5b50600436106100885760003560e01c80638ff2dd861161005b5780638ff2dd861461012a578063a957112d14610148578063b0d90db914610164578063be3238251461019557610088565b8063139b28df1461008d57806317d08565146100bd5780635a9b88d8146100db5780637b0478071461010c575b600080fd5b6100a760048036038101906100a29190610d2e565b6101c5565b6040516100b49190610d74565b60405180910390f35b6100c561024d565b6040516100d29190610d74565b60405180910390f35b6100f560048036038101906100f09190610dc8565b6102ce565b604051610103929190610e04565b60405180910390f35b6101146104f6565b6040516101219190610f1a565b60405180910390f35b610132610670565b60405161013f9190610f1a565b60405180910390f35b610162600480360381019061015d9190610d2e565b610826565b005b61017e60048036038101906101799190610d2e565b610894565b60405161018c929190610fcc565b60405180910390f35b6101af60048036038101906101aa9190611138565b610988565b6040516101bc91906111b0565b60405180910390f35b6000808273ffffffffffffffffffffffffffffffffffffffff166370a08231336040518263ffffffff1660e01b815260040161020191906111b0565b602060405180830381865afa15801561021e573d6000803e3d6000fd5b505050506040513d601f19601f8201168201806040525081019061024291906111f7565b905080915050919050565b60008073ffffffffffffffffffffffffffffffffffffffff163373ffffffffffffffffffffffffffffffffffffffff16036102bd576040517f08c379a00000000000000000000000000000000000000000000000000000000081526004016102b490611270565b60405180910390fd5b600060018054905090508091505090565b600080600073ffffffffffffffffffffffffffffffffffffffff163373ffffffffffffffffffffffffffffffffffffffff1603610340576040517f08c379a000000000000000000000000000000000000000000000000000000000815260040161033790611270565b60405180910390fd5b6000803373ffffffffffffffffffffffffffffffffffffffff1673ffffffffffffffffffffffffffffffffffffffff168152602001908152602001600020805490508360ff16106103c6576040517f08c379a00000000000000000000000000000000000000000000000000000000081526004016103bd906112dc565b60405180910390fd5b60008060003373ffffffffffffffffffffffffffffffffffffffff1673ffffffffffffffffffffffffffffffffffffffff1681526020019081526020016000208460ff168154811061041b5761041a6112fc565b5b90600052602060002090600202016040518060400160405290816000820160009054906101000a900473ffffffffffffffffffffffffffffffffffffffff1673ffffffffffffffffffffffffffffffffffffffff1673ffffffffffffffffffffffffffffffffffffffff1681526020016001820160009054906101000a900473ffffffffffffffffffffffffffffffffffffffff1673ffffffffffffffffffffffffffffffffffffffff1673ffffffffffffffffffffffffffffffffffffffff16815250509050806000015192508060200151915050915091565b6060600073ffffffffffffffffffffffffffffffffffffffff163373ffffffffffffffffffffffffffffffffffffffff1603610567576040517f08c379a000000000000000000000000000000000000000000000000000000000815260040161055e90611270565b60405180910390fd5b6001805480602002602001604051908101604052809291908181526020016000905b8282101561066757838290600052602060002090600202016040518060400160405290816000820160009054906101000a900473ffffffffffffffffffffffffffffffffffffffff1673ffffffffffffffffffffffffffffffffffffffff1673ffffffffffffffffffffffffffffffffffffffff1681526020016001820160009054906101000a900473ffffffffffffffffffffffffffffffffffffffff1673ffffffffffffffffffffffffffffffffffffffff1673ffffffffffffffffffffffffffffffffffffffff168152505081526020019060010190610589565b50505050905090565b6060600073ffffffffffffffffffffffffffffffffffffffff163373ffffffffffffffffffffffffffffffffffffffff16036106e1576040517f08c379a00000000000000000000000000000000000000000000000000000000081526004016106d890611270565b60405180910390fd5b6000803373ffffffffffffffffffffffffffffffffffffffff1673ffffffffffffffffffffffffffffffffffffffff168152602001908152602001600020805480602002602001604051908101604052809291908181526020016000905b8282101561081d57838290600052602060002090600202016040518060400160405290816000820160009054906101000a900473ffffffffffffffffffffffffffffffffffffffff1673ffffffffffffffffffffffffffffffffffffffff1673ffffffffffffffffffffffffffffffffffffffff1681526020016001820160009054906101000a900473ffffffffffffffffffffffffffffffffffffffff1673ffffffffffffffffffffffffffffffffffffffff1673ffffffffffffffffffffffffffffffffffffffff16815250508152602001906001019061073f565b50505050905090565b8073ffffffffffffffffffffffffffffffffffffffff166332f289cf336040518263ffffffff1660e01b815260040161085f91906111b0565b600060405180830381600087803b15801561087957600080fd5b505af115801561088d573d6000803e3d6000fd5b5050505050565b6060808273ffffffffffffffffffffffffffffffffffffffff1663862b092b6040518163ffffffff1660e01b8152600401600060405180830381865afa1580156108e2573d6000803e3d6000fd5b505050506040513d6000823e3d601f19601f8201168201806040525081019061090b919061139b565b8373ffffffffffffffffffffffffffffffffffffffff1663150704016040518163ffffffff1660e01b8152600401600060405180830381865afa158015610956573d6000803e3d6000fd5b505050506040513d6000823e3d601f19601f8201168201806040525081019061097f919061139b565b91509150915091565b60008073ffffffffffffffffffffffffffffffffffffffff163373ffffffffffffffffffffffffffffffffffffffff16036109f8576040517f08c379a00000000000000000000000000000000000000000000000000000000081526004016109ef90611270565b60405180910390fd5b60008383604051610a0890610c69565b610a13929190610fcc565b604051809103906000f080158015610a2f573d6000803e3d6000fd5b509050809150610a3d610c76565b33816000019073ffffffffffffffffffffffffffffffffffffffff16908173ffffffffffffffffffffffffffffffffffffffff168152505081816020019073ffffffffffffffffffffffffffffffffffffffff16908173ffffffffffffffffffffffffffffffffffffffff16815250506000803373ffffffffffffffffffffffffffffffffffffffff1673ffffffffffffffffffffffffffffffffffffffff16815260200190815260200160002081908060018154018082558091505060019003906000526020600020906002020160009091909190915060008201518160000160006101000a81548173ffffffffffffffffffffffffffffffffffffffff021916908373ffffffffffffffffffffffffffffffffffffffff16021790555060208201518160010160006101000a81548173ffffffffffffffffffffffffffffffffffffffff021916908373ffffffffffffffffffffffffffffffffffffffff1602179055505050600181908060018154018082558091505060019003906000526020600020906002020160009091909190915060008201518160000160006101000a81548173ffffffffffffffffffffffffffffffffffffffff021916908373ffffffffffffffffffffffffffffffffffffffff16021790555060208201518160010160006101000a81548173ffffffffffffffffffffffffffffffffffffffff021916908373ffffffffffffffffffffffffffffffffffffffff1602179055505050505092915050565b6121fd806113e583390190565b6040518060400160405280600073ffffffffffffffffffffffffffffffffffffffff168152602001600073ffffffffffffffffffffffffffffffffffffffff1681525090565b6000604051905090565b600080fd5b600080fd5b600073ffffffffffffffffffffffffffffffffffffffff82169050919050565b6000610cfb82610cd0565b9050919050565b610d0b81610cf0565b8114610d1657600080fd5b50565b600081359050610d2881610d02565b92915050565b600060208284031215610d4457610d43610cc6565b5b6000610d5284828501610d19565b91505092915050565b6000819050919050565b610d6e81610d5b565b82525050565b6000602082019050610d896000830184610d65565b92915050565b600060ff82169050919050565b610da581610d8f565b8114610db057600080fd5b50565b600081359050610dc281610d9c565b92915050565b600060208284031215610dde57610ddd610cc6565b5b6000610dec84828501610db3565b91505092915050565b610dfe81610cf0565b82525050565b6000604082019050610e196000830185610df5565b610e266020830184610df5565b9392505050565b600081519050919050565b600082825260208201905092915050565b6000819050602082019050919050565b610e6281610cf0565b82525050565b604082016000820151610e7e6000850182610e59565b506020820151610e916020850182610e59565b50505050565b6000610ea38383610e68565b60408301905092915050565b6000602082019050919050565b6000610ec782610e2d565b610ed18185610e38565b9350610edc83610e49565b8060005b83811015610f0d578151610ef48882610e97565b9750610eff83610eaf565b925050600181019050610ee0565b5085935050505092915050565b60006020820190508181036000830152610f348184610ebc565b905092915050565b600081519050919050565b600082825260208201905092915050565b60005b83811015610f76578082015181840152602081019050610f5b565b60008484015250505050565b6000601f19601f8301169050919050565b6000610f9e82610f3c565b610fa88185610f47565b9350610fb8818560208601610f58565b610fc181610f82565b840191505092915050565b60006040820190508181036000830152610fe68185610f93565b90508181036020830152610ffa8184610f93565b90509392505050565b600080fd5b600080fd5b7f4e487b7100000000000000000000000000000000000000000000000000000000600052604160045260246000fd5b61104582610f82565b810181811067ffffffffffffffff821117156110645761106361100d565b5b80604052505050565b6000611077610cbc565b9050611083828261103c565b919050565b600067ffffffffffffffff8211156110a3576110a261100d565b5b6110ac82610f82565b9050602081019050919050565b82818337600083830152505050565b60006110db6110d684611088565b61106d565b9050828152602081018484840111156110f7576110f6611008565b5b6111028482856110b9565b509392505050565b600082601f83011261111f5761111e611003565b5b813561112f8482602086016110c8565b91505092915050565b6000806040838503121561114f5761114e610cc6565b5b600083013567ffffffffffffffff81111561116d5761116c610ccb565b5b6111798582860161110a565b925050602083013567ffffffffffffffff81111561119a57611199610ccb565b5b6111a68582860161110a565b9150509250929050565b60006020820190506111c56000830184610df5565b92915050565b6111d481610d5b565b81146111df57600080fd5b50565b6000815190506111f1816111cb565b92915050565b60006020828403121561120d5761120c610cc6565b5b600061121b848285016111e2565b91505092915050565b7f5a65726f206e6f7420616c6c6f77656400000000000000000000000000000000600082015250565b600061125a601083610f47565b915061126582611224565b602082019050919050565b600060208201905081810360008301526112898161124d565b9050919050565b7f4f7574206f6620626f756e640000000000000000000000000000000000000000600082015250565b60006112c6600c83610f47565b91506112d182611290565b602082019050919050565b600060208201905081810360008301526112f5816112b9565b9050919050565b7f4e487b7100000000000000000000000000000000000000000000000000000000600052603260045260246000fd5b600061133e61133984611088565b61106d565b90508281526020810184848401111561135a57611359611008565b5b611365848285610f58565b509392505050565b600082601f83011261138257611381611003565b5b815161139284826020860161132b565b91505092915050565b6000602082840312156113b1576113b0610cc6565b5b600082015167ffffffffffffffff8111156113cf576113ce610ccb565b5b6113db8482850161136d565b9150509291505056fe608060405234801561001057600080fd5b506040516121fd3803806121fd8339818101604052810190610032919061033a565b8181816000908161004391906105d3565b50806001908161005391906105d3565b5033600360006101000a81548173ffffffffffffffffffffffffffffffffffffffff021916908373ffffffffffffffffffffffffffffffffffffffff1602179055506100ca620f4240600360009054906101000a900473ffffffffffffffffffffffffffffffffffffffff166100d360201b60201c565b50505050610774565b6000670de0b6b3a7640000836100e991906106d4565b905080600460008473ffffffffffffffffffffffffffffffffffffffff1673ffffffffffffffffffffffffffffffffffffffff168152602001908152602001600020600082825461013a9190610716565b9250508190555080600260008282546101539190610716565b925050819055508173ffffffffffffffffffffffffffffffffffffffff16600073ffffffffffffffffffffffffffffffffffffffff167fddf252ad1be2c89b69c2b068fc378daa952ba7f163c4a11628f55a4df523b3ef836040516101b89190610759565b60405180910390a3505050565b6000604051905090565b600080fd5b600080fd5b600080fd5b600080fd5b6000601f19601f8301169050919050565b7f4e487b7100000000000000000000000000000000000000000000000000000000600052604160045260246000fd5b61022c826101e3565b810181811067ffffffffffffffff8211171561024b5761024a6101f4565b5b80604052505050565b600061025e6101c5565b905061026a8282610223565b919050565b600067ffffffffffffffff82111561028a576102896101f4565b5b610293826101e3565b9050602081019050919050565b60005b838110156102be5780820151818401526020810190506102a3565b60008484015250505050565b60006102dd6102d88461026f565b610254565b9050828152602081018484840111156102f9576102f86101de565b5b6103048482856102a0565b509392505050565b600082601f830112610321576103206101d9565b5b81516103318482602086016102ca565b91505092915050565b60008060408385031215610351576103506101cf565b5b600083015167ffffffffffffffff81111561036f5761036e6101d4565b5b61037b8582860161030c565b925050602083015167ffffffffffffffff81111561039c5761039b6101d4565b5b6103a88582860161030c565b9150509250929050565b600081519050919050565b7f4e487b7100000000000000000000000000000000000000000000000000000000600052602260045260246000fd5b6000600282049050600182168061040457607f821691505b602082108103610417576104166103bd565b5b50919050565b60008190508160005260206000209050919050565b60006020601f8301049050919050565b600082821b905092915050565b60006008830261047f7fffffffffffffffffffffffffffffffffffffffffffffffffffffffffffffffff82610442565b6104898683610442565b95508019841693508086168417925050509392505050565b6000819050919050565b6000819050919050565b60006104d06104cb6104c6846104a1565b6104ab565b6104a1565b9050919050565b6000819050919050565b6104ea836104b5565b6104fe6104f6826104d7565b84845461044f565b825550505050565b600090565b610513610506565b61051e8184846104e1565b505050565b5b818110156105425761053760008261050b565b600181019050610524565b5050565b601f821115610587576105588161041d565b61056184610432565b81016020851015610570578190505b61058461057c85610432565b830182610523565b50505b505050565b600082821c905092915050565b60006105aa6000198460080261058c565b1980831691505092915050565b60006105c38383610599565b9150826002028217905092915050565b6105dc826103b2565b67ffffffffffffffff8111156105f5576105f46101f4565b5b6105ff82546103ec565b61060a828285610546565b600060209050601f83116001811461063d576000841561062b578287015190505b61063585826105b7565b86555061069d565b601f19841661064b8661041d565b60005b828110156106735784890151825560018201915060208501945060208101905061064e565b86831015610690578489015161068c601f891682610599565b8355505b6001600288020188555050505b505050505050565b7f4e487b7100000000000000000000000000000000000000000000000000000000600052601160045260246000fd5b60006106df826104a1565b91506106ea836104a1565b92508282026106f8816104a1565b9150828204841483151761070f5761070e6106a5565b5b5092915050565b6000610721826104a1565b915061072c836104a1565b9250828201905080821115610744576107436106a5565b5b92915050565b610753816104a1565b82525050565b600060208201905061076e600083018461074a565b92915050565b611a7a806107836000396000f3fe608060405234801561001057600080fd5b506004361061010b5760003560e01c806376809ce3116100a25780638da5cb5b116100715780638da5cb5b146102a8578063a9059cbb146102c6578063c4e41b22146102e2578063dd62ed3e14610300578063e741bec3146103305761010b565b806376809ce31461021e578063775ad5271461023c5780637b61c3201461026c578063862b092b1461028a5761010b565b806327e235e3116100de57806327e235e31461018457806332f289cf146101b45780636c02a931146101d057806370a08231146101ee5761010b565b8063095ea7b314610110578063150704011461012c57806318160ddd1461014a57806323b872dd14610168575b600080fd5b61012a60048036038101906101259190611397565b61034e565b005b6101346104ba565b6040516101419190611467565b60405180910390f35b61015261054c565b60405161015f9190611498565b60405180910390f35b610182600480360381019061017d91906114b3565b610552565b005b61019e60048036038101906101999190611506565b61091f565b6040516101ab9190611498565b60405180910390f35b6101ce60048036038101906101c99190611506565b610937565b005b6101d8610bf8565b6040516101e59190611467565b60405180910390f35b61020860048036038101906102039190611506565b610c86565b6040516102159190611498565b60405180910390f35b610226610ccf565b604051610233919061154f565b60405180910390f35b6102566004803603810190610251919061156a565b610cd8565b6040516102639190611498565b60405180910390f35b610274610cfd565b6040516102819190611467565b60405180910390f35b610292610d8b565b60405161029f9190611467565b60405180910390f35b6102b0610e1d565b6040516102bd91906115b9565b60405180910390f35b6102e060048036038101906102db9190611397565b610e43565b005b6102ea611083565b6040516102f79190611498565b60405180910390f35b61031a6004803603810190610315919061156a565b61108d565b6040516103279190611498565b60405180910390f35b610338611114565b6040516103459190611498565b60405180910390f35b80600460003373ffffffffffffffffffffffffffffffffffffffff1673ffffffffffffffffffffffffffffffffffffffff1681526020019081526020016000205410156103d0576040517f08c379a00000000000000000000000000000000000000000000000000000000081526004016103c790611620565b60405180910390fd5b80600560003373ffffffffffffffffffffffffffffffffffffffff1673ffffffffffffffffffffffffffffffffffffffff16815260200190815260200160002060008473ffffffffffffffffffffffffffffffffffffffff1673ffffffffffffffffffffffffffffffffffffffff168152602001908152602001600020819055508173ffffffffffffffffffffffffffffffffffffffff163373ffffffffffffffffffffffffffffffffffffffff167f8c5be1e5ebec7d5bd14f71427d1e84f3dd0314c0f7b2291e5b200ac8c7c3b925836040516104ae9190611498565b60405180910390a35050565b6060600180546104c99061166f565b80601f01602080910402602001604051908101604052809291908181526020018280546104f59061166f565b80156105425780601f1061051757610100808354040283529160200191610542565b820191906000526020600020905b81548152906001019060200180831161052557829003601f168201915b5050505050905090565b60025481565b600073ffffffffffffffffffffffffffffffffffffffff168373ffffffffffffffffffffffffffffffffffffffff16141580156105bc5750600073ffffffffffffffffffffffffffffffffffffffff168273ffffffffffffffffffffffffffffffffffffffff1614155b6105fb576040517f08c379a00000000000000000000000000000000000000000000000000000000081526004016105f2906116ec565b60405180910390fd5b600460008473ffffffffffffffffffffffffffffffffffffffff1673ffffffffffffffffffffffffffffffffffffffff1681526020019081526020016000205481111561067d576040517f08c379a000000000000000000000000000000000000000000000000000000000815260040161067490611620565b60405180910390fd5b600560008473ffffffffffffffffffffffffffffffffffffffff1673ffffffffffffffffffffffffffffffffffffffff16815260200190815260200160002060003373ffffffffffffffffffffffffffffffffffffffff1673ffffffffffffffffffffffffffffffffffffffff1681526020019081526020016000205481111561073c576040517f08c379a000000000000000000000000000000000000000000000000000000000815260040161073390611758565b60405180910390fd5b6000606460058361074d91906117a7565b6107579190611818565b9050600081836107679190611849565b905082600460008773ffffffffffffffffffffffffffffffffffffffff1673ffffffffffffffffffffffffffffffffffffffff16815260200190815260200160002060008282546107b89190611849565b9250508190555082600560008773ffffffffffffffffffffffffffffffffffffffff1673ffffffffffffffffffffffffffffffffffffffff16815260200190815260200160002060003373ffffffffffffffffffffffffffffffffffffffff1673ffffffffffffffffffffffffffffffffffffffff168152602001908152602001600020600082825461084b9190611849565b9250508190555080600460008673ffffffffffffffffffffffffffffffffffffffff1673ffffffffffffffffffffffffffffffffffffffff16815260200190815260200160002060008282546108a1919061187d565b925050819055506108b3600083611119565b8373ffffffffffffffffffffffffffffffffffffffff168573ffffffffffffffffffffffffffffffffffffffff167fddf252ad1be2c89b69c2b068fc378daa952ba7f163c4a11628f55a4df523b3ef836040516109109190611498565b60405180910390a35050505050565b60046020528060005260406000206000915090505481565b600073ffffffffffffffffffffffffffffffffffffffff168173ffffffffffffffffffffffffffffffffffffffff16036109a6576040517f08c379a000000000000000000000000000000000000000000000000000000000815260040161099d906118fd565b60405180910390fd5b600760008273ffffffffffffffffffffffffffffffffffffffff1673ffffffffffffffffffffffffffffffffffffffff16815260200190815260200160002060009054906101000a900460ff1615610b2257610a03600a826111f2565b6000600660008373ffffffffffffffffffffffffffffffffffffffff1673ffffffffffffffffffffffffffffffffffffffff168152602001908152602001600020905042620151808260000154610a5a919061187d565b1115610a9b576040517f08c379a0000000000000000000000000000000000000000000000000000000008152600401610a929061198f565b60405180910390fd5b428160000181905550600a816001016000828254610ab9919061187d565b92505081905550610acb600a836111f2565b8173ffffffffffffffffffffffffffffffffffffffff167f0e6cdb8fba4436c7187602f0d706c797122091eb432d3fcdd1d28902f44e2793600a42604051610b149291906119af565b60405180910390a250610bf5565b6001600760008373ffffffffffffffffffffffffffffffffffffffff1673ffffffffffffffffffffffffffffffffffffffff16815260200190815260200160002060006101000a81548160ff021916908315150217905550610b85600a826111f2565b610b8d6112e4565b42816000018181525050600a8160200181815250508173ffffffffffffffffffffffffffffffffffffffff167f0e6cdb8fba4436c7187602f0d706c797122091eb432d3fcdd1d28902f44e2793600a42604051610beb9291906119af565b60405180910390a2505b50565b60008054610c059061166f565b80601f0160208091040260200160405190810160405280929190818152602001828054610c319061166f565b8015610c7e5780601f10610c5357610100808354040283529160200191610c7e565b820191906000526020600020905b815481529060010190602001808311610c6157829003601f168201915b505050505081565b6000600460008373ffffffffffffffffffffffffffffffffffffffff1673ffffffffffffffffffffffffffffffffffffffff168152602001908152602001600020549050919050565b60006012905090565b6005602052816000526040600020602052806000526040600020600091509150505481565b60018054610d0a9061166f565b80601f0160208091040260200160405190810160405280929190818152602001828054610d369061166f565b8015610d835780601f10610d5857610100808354040283529160200191610d83565b820191906000526020600020905b815481529060010190602001808311610d6657829003601f168201915b505050505081565b606060008054610d9a9061166f565b80601f0160208091040260200160405190810160405280929190818152602001828054610dc69061166f565b8015610e135780601f10610de857610100808354040283529160200191610e13565b820191906000526020600020905b815481529060010190602001808311610df657829003601f168201915b5050505050905090565b600360009054906101000a900473ffffffffffffffffffffffffffffffffffffffff1681565b600073ffffffffffffffffffffffffffffffffffffffff168273ffffffffffffffffffffffffffffffffffffffff1603610eb2576040517f08c379a0000000000000000000000000000000000000000000000000000000008152600401610ea990611a24565b60405180910390fd5b600460003373ffffffffffffffffffffffffffffffffffffffff1673ffffffffffffffffffffffffffffffffffffffff16815260200190815260200160002054811115610f34576040517f08c379a0000000000000000000000000000000000000000000000000000000008152600401610f2b90611620565b60405180910390fd5b60006064600583610f4591906117a7565b610f4f9190611818565b905060008183610f5f9190611849565b905082600460003373ffffffffffffffffffffffffffffffffffffffff1673ffffffffffffffffffffffffffffffffffffffff1681526020019081526020016000206000828254610fb09190611849565b9250508190555080600460008673ffffffffffffffffffffffffffffffffffffffff1673ffffffffffffffffffffffffffffffffffffffff1681526020019081526020016000206000828254611006919061187d565b92505081905550611018600083611119565b8373ffffffffffffffffffffffffffffffffffffffff163373ffffffffffffffffffffffffffffffffffffffff167fddf252ad1be2c89b69c2b068fc378daa952ba7f163c4a11628f55a4df523b3ef836040516110759190611498565b60405180910390a350505050565b6000600254905090565b6000600560008473ffffffffffffffffffffffffffffffffffffffff1673ffffffffffffffffffffffffffffffffffffffff16815260200190815260200160002060008373ffffffffffffffffffffffffffffffffffffffff1673ffffffffffffffffffffffffffffffffffffffff16815260200190815260200160002054905092915050565b600a81565b80600460008473ffffffffffffffffffffffffffffffffffffffff1673ffffffffffffffffffffffffffffffffffffffff16815260200190815260200160002060008282546111689190611849565b9250508190555080600260008282546111819190611849565b92505081905550600073ffffffffffffffffffffffffffffffffffffffff168273ffffffffffffffffffffffffffffffffffffffff167fddf252ad1be2c89b69c2b068fc378daa952ba7f163c4a11628f55a4df523b3ef836040516111e69190611498565b60405180910390a35050565b6000670de0b6b3a76400008361120891906117a7565b905080600460008473ffffffffffffffffffffffffffffffffffffffff1673ffffffffffffffffffffffffffffffffffffffff1681526020019081526020016000206000828254611259919061187d565b925050819055508060026000828254611272919061187d565b925050819055508173ffffffffffffffffffffffffffffffffffffffff16600073ffffffffffffffffffffffffffffffffffffffff167fddf252ad1be2c89b69c2b068fc378daa952ba7f163c4a11628f55a4df523b3ef836040516112d79190611498565b60405180910390a3505050565b604051806040016040528060008152602001600081525090565b600080fd5b600073ffffffffffffffffffffffffffffffffffffffff82169050919050565b600061132e82611303565b9050919050565b61133e81611323565b811461134957600080fd5b50565b60008135905061135b81611335565b92915050565b6000819050919050565b61137481611361565b811461137f57600080fd5b50565b6000813590506113918161136b565b92915050565b600080604083850312156113ae576113ad6112fe565b5b60006113bc8582860161134c565b92505060206113cd85828601611382565b9150509250929050565b600081519050919050565b600082825260208201905092915050565b60005b838110156114115780820151818401526020810190506113f6565b60008484015250505050565b6000601f19601f8301169050919050565b6000611439826113d7565b61144381856113e2565b93506114538185602086016113f3565b61145c8161141d565b840191505092915050565b60006020820190508181036000830152611481818461142e565b905092915050565b61149281611361565b82525050565b60006020820190506114ad6000830184611489565b92915050565b6000806000606084860312156114cc576114cb6112fe565b5b60006114da8682870161134c565b93505060206114eb8682870161134c565b92505060406114fc86828701611382565b9150509250925092565b60006020828403121561151c5761151b6112fe565b5b600061152a8482850161134c565b91505092915050565b600060ff82169050919050565b61154981611533565b82525050565b60006020820190506115646000830184611540565b92915050565b60008060408385031215611581576115806112fe565b5b600061158f8582860161134c565b92505060206115a08582860161134c565b9150509250929050565b6115b381611323565b82525050565b60006020820190506115ce60008301846115aa565b92915050565b7f496e73756666696369656e742062616c616e6365000000000000000000000000600082015250565b600061160a6014836113e2565b9150611615826115d4565b602082019050919050565b60006020820190508181036000830152611639816115fd565b9050919050565b7f4e487b7100000000000000000000000000000000000000000000000000000000600052602260045260246000fd5b6000600282049050600182168061168757607f821691505b60208210810361169a57611699611640565b5b50919050565b7f496e76616c696420616464726573730000000000000000000000000000000000600082015250565b60006116d6600f836113e2565b91506116e1826116a0565b602082019050919050565b60006020820190508181036000830152611705816116c9565b9050919050565b7f496e73756666696369656e7420616c6c6f77616e636500000000000000000000600082015250565b60006117426016836113e2565b915061174d8261170c565b602082019050919050565b6000602082019050818103600083015261177181611735565b9050919050565b7f4e487b7100000000000000000000000000000000000000000000000000000000600052601160045260246000fd5b60006117b282611361565b91506117bd83611361565b92508282026117cb81611361565b915082820484148315176117e2576117e1611778565b5b5092915050565b7f4e487b7100000000000000000000000000000000000000000000000000000000600052601260045260246000fd5b600061182382611361565b915061182e83611361565b92508261183e5761183d6117e9565b5b828204905092915050565b600061185482611361565b915061185f83611361565b925082820390508181111561187757611876611778565b5b92915050565b600061188882611361565b915061189383611361565b92508282019050808211156118ab576118aa611778565b5b92915050565b7f5a65726f2061646472657373206e6f7420616c6c6f7765640000000000000000600082015250565b60006118e76018836113e2565b91506118f2826118b1565b602082019050919050565b60006020820190508181036000830152611916816118da565b9050919050565b7f596f752063616e20636c61696d206f6e636520616674657220323420686f757260008201527f7300000000000000000000000000000000000000000000000000000000000000602082015250565b60006119796021836113e2565b91506119848261191d565b604082019050919050565b600060208201905081810360008301526119a88161196c565b9050919050565b60006040820190506119c46000830185611489565b6119d16020830184611489565b9392505050565b7f41646472657373206973206e6f7420616c6c6f77656400000000000000000000600082015250565b6000611a0e6016836113e2565b9150611a19826119d8565b602082019050919050565b60006020820190508181036000830152611a3d81611a01565b905091905056fea26469706673582212204f5c7aadc9e15e1608711b808c8257b1fc045bba572826d01afc6d79fa7843b464736f6c634300081b0033a2646970667358221220859ed5c1b2fa7f66bf857423c94262129d028fc5c473b74298fb6dc258e00b3c64736f6c634300081b0033",
  "linkReferences": {},
  "deployedLinkReferences": {}
}